:100000000C9462000C948A000C948A000C948A0070
:100010000C948A000C948A000C948A000C948A0038
:100020000C948A000C948A000C948A000C948A0028
:100030000C948A000C948A000C948A000C948A0018
:100040000C94C6020C948A000C9494020C946E02D8
:100050000C948A000C948A000C948A000C948A00F8
:100060000C948A000C948A000000000024002700F1
:100070002A0000000000250028002B0000000008D6
:10008000000201000003040700000000000000005F
:1000900000000000230026002900040404040404D6
:1000A0000404020202020202030303030303010227
:1000B00004081020408001020408102001020408F6
:1000C0001020CA0411241FBECFEFD8E0DEBFCDBF81
:1000D00011E0A0E0B1E0E8E7FEE002C005900D927B
:1000E000A631B107D9F721E0A6E1B1E001C01D9228
:1000F000A03CB207E1F710E0C2E6D0E004C02197CF
:10010000FE010E943407C136D107C9F70E9455038A
:100110000C943A070C940000AF92BF92CF92DF92FA
:10012000EF92FF920F931F93CF93DF936C017B01AC
:100130008B01040F151FEB015E01AE18BF08C0173D
:10014000D10759F06991D601ED91FC910190F081B0
:10015000E02DC6010995892B79F7C501DF91CF9173
:100160001F910F91FF90EF90DF90CF90BF90AF90D5
:100170000895FC01538D448D252F30E0842F90E0AD
:10018000821B930B541710F0CF9608950197089592
:10019000FC01918D828D981761F0A28DAE0FBF2F5B
:1001A000B11D5D968C91928D9F5F9F73928F90E0B1
:1001B00008958FEF9FEF0895FC01918D828D981720
:1001C00031F0828DE80FF11D858D90E008958FEF5D
:1001D0009FEF0895FC01918D228D892F90E0805C26
:1001E0009F4F821B91098F73992708958FE191E0AA
:1001F0000E94EA0021E0892B09F420E0822F089573
:1002000080E090E0892B29F00E94F60081110C9487
:1002100000000895FC01A48DA80FB92FB11DA35AA9
:10022000BF4F2C91848D90E001968F739927848F16
:10023000A689B7892C93A089B1898C918370806439
:100240008C93938D848D981306C00288F389E02DDA
:1002500080818F7D80830895EF92FF920F931F938B
:10026000CF93DF93EC0181E0888F9B8D8C8D981369
:100270001AC0E889F989808185FF15C09FB7F89475
:10028000EE89FF896083E889F989808183708064C1
:1002900080839FBF81E090E0DF91CF911F910F910C
:1002A000FF90EF900895F62E0B8D10E00F5F1F4F1B
:1002B0000F731127E02E8C8D8E110CC00FB607FC2A
:1002C000FACFE889F989808185FFF5CFCE010E94B8
:1002D0000A01F1CFEB8DEC0FFD2FF11DE35AFF4F1B
:1002E000F0829FB7F8940B8FEA89FB898081806246
:1002F000CFCFCF93DF93EC01888D8823B9F0AA8903
:10030000BB89E889F9898C9185FD03C0808186FDD0
:100310000DC00FB607FCF7CF8C9185FFF2CF80811F
:1003200085FFEDCFCE010E940A01E9CFDF91CF9189
:10033000089590E0FC01E458FF4F2491FC01E25540
:10034000FF4F3491FC01E656FF4FE491EE23C9F0D4
:10035000222339F0233001F1A8F4213019F12230A1
:1003600029F1F0E0EE0FFF1FEE58FF4FA591B49179
:100370008FB7F894EC91611126C030953E233C93E1
:100380008FBF08952730A9F02830C9F0243049F7ED
:10039000809180008F7D03C0809180008F77809353
:1003A0008000DFCF84B58F7784BDDBCF84B58F7DB0
:1003B000FBCF8091B0008F778093B000D2CF809137
:1003C000B0008F7DF9CF3E2BDACFCF93DF9390E053
:1003D000FC01E255FF4F249186569F4FFC0184910A
:1003E0008823D1F090E0880F991FFC01E859FF4F56
:1003F000A591B491FC01EE58FF4FC591D4916111C4
:100400000EC09FB7F8948C91E22FE0958E238C93C9
:100410002881E223E8839FBFDF91CF9108958FB7B2
:10042000F894EC91E22BEC938FBFF6CF3FB7F894A2
:1004300080911B0190911C01A0911D01B0911E01A2
:1004400026B5A89B05C02F3F19F00196A11DB11D2F
:100450003FBFBA2FA92F982F8827BC01CD01620F6B
:10046000711D811D911D42E0660F771F881F991F26
:100470004A95D1F708958F929F92AF92BF92CF92F3
:10048000DF92EF92FF926B017C010E9416024B01FA
:100490005C01C114D104E104F104B9F00E94160218
:1004A000681979098A099B09683E7340810591059D
:1004B00080F321E0C21AD108E108F10888EE880E25
:1004C00083E0981EA11CB11CE4CFFF90EF90DF9059
:1004D000CF90BF90AF909F908F9008951F920F92F2
:1004E0000FB60F9211242F933F934F935F936F9307
:1004F0007F938F939F93AF93BF93EF93FF938FE17E
:1005000091E00E940A01FF91EF91BF91AF919F91FD
:100510008F917F916F915F914F913F912F910F90AC
:100520000FBE0F901F9018951F920F920FB60F924B
:1005300011242F938F939F93EF93FF93E0912F01BB
:10054000F09130018081E0913501F091360182FD1A
:100550001BC09081809138018F5F8F73209139018A
:10056000821741F0E0913801F0E0E15EFE4F958F97
:1005700080933801FF91EF919F918F912F910F9070
:100580000FBE0F901F9018958081F4CF1F920F928D
:100590000FB60F9211242F933F938F939F93AF9396
:1005A000BF938091170190911801A0911901B0910A
:1005B0001A013091160123E0230F2D3758F50196CB
:1005C000A11DB11D2093160180931701909318016E
:1005D000A0931901B0931A0180911B0190911C0105
:1005E000A0911D01B0911E010196A11DB11D809326
:1005F0001B0190931C01A0931D01B0931E01BF919C
:10060000AF919F918F913F912F910F900FBE0F90BF
:100610001F90189526E8230F0296A11DB11DD2CF79
:10062000CF92DF92EF92FF920F931F93E82FF92F53
:1006300005C0015011092109310961F1908196230A
:100640009417B9F305C0015011092109310911F1BD
:10065000908196239413F7CFC12CD12CE12CF12C4F
:100660000AC08FEFC81AD80AE80AF80A0C151D0547
:100670002E053F0579F080818623841791F36C2D38
:100680007D2D8E2D9F2D1F910F91FF90EF90DF906C
:10069000CF90089560E070E080E090E01F910F91AE
:1006A000FF90EF90DF90CF900895789484B58260AA
:1006B00084BD84B5816084BD85B5826085BD85B506
:1006C000816085BD80916E00816080936E00109284
:1006D00081008091810082608093810080918100FF
:1006E0008160809381008091800081608093800090
:1006F0008091B10084608093B1008091B0008160EE
:100700008093B00080917A00846080937A00809119
:100710007A00826080937A0080917A008160809371
:100720007A0080917A00806880937A001092C100EC
:100730000E9443052CED35E040E050E00E949B050F
:100740006C507E4F8F4F9F4F0E943B02E0912F01D4
:10075000F091300182E08083E0912B01F0912C0137
:100760001082E0912D01F0912E018FEC8083109288
:100770003701E0913301F091340186E08083E0910C
:100780003101F0913201808180618083E0913101FB
:10079000F0913201808188608083E0913101F09195
:1007A0003201808180688083E0913101F0913201D3
:1007B00080818F7D808361E084E00E94E50161E0BB
:1007C00085E00E94E50161E086E00E94E50161E0CC
:1007D00087E00E94E50161E08FE00E94E50160E0B2
:1007E0008EE00E94E501C3E0D0E093E2E92EF12C17
:1007F0002CEBC22E20E0D22E38EAA32E30E0B32E0E
:1008000040E0842E40E0942E60E08FE00E94990149
:10081000CE010197F1F761E08FE00E949901C701D5
:100820000197F1F7F6016491F5018491E82FF0E06A
:10083000EE0FFF1FE057FF4F8591949100E412E403
:100840002FE030E0462F0E941003611571058105ED
:10085000910529F06F5F7F4F8F4F9F4F9F700E94D0
:10086000A8062DEC3CEC48E652E40E94FE050E94EE
:1008700070062B013C014092BC015092BD01609278
:10088000BE017092BF016AE070E080E090E00E94DB
:100890003B02F7E04F16510461047104E4F061E09B
:1008A00087E00E94990160E086E00E94990161E082
:1008B00085E00E94990160E084E00E949901811422
:1008C000910409F4A1CF0E94F600882309F49CCF7B
:1008D0000E94000099CF85E048165104610471041C
:1008E00074F760E087E00E94990160E086E00E9472
:1008F000990160E085E00E94990160E084E00E9437
:10090000990164EF71E080E090E00E943B0260E0BA
:1009100087E00E94990161E086E00E94990160E011
:1009200085E00E94990161E084E00E94990164EFF2
:1009300071E080E090E00E943B0260E087E00E946E
:10094000990160E086E00E94990160E085E00E94E4
:10095000990160E084E00E94990164E670E080E023
:1009600090E00E943B0261E087E00E94990160E014
:1009700086E00E94990160E084E00E94990160E0B5
:1009800085E00E94990164EF71E080E090E00E94B0
:100990003B0295CFEFE1F1E01382128288EE93E003
:1009A000A0E0B0E084839583A683B78388E091E0DC
:1009B0009183808385EC90E09587848784EC90E038
:1009C0009787868780EC90E0918B808B81EC90E01C
:1009D000938B828B82EC90E0958B848B86EC90E0FD
:1009E000978B868B118E128E138E148E08958F9294
:1009F0009F92AF92BF92CF92DF92EF92FF92CF93EE
:100A0000DF93EC01688179818A819B816115710591
:100A10008105910521F464E279ED8BE597E02DE104
:100A200033EF41E050E00E949B0549015A019B01D0
:100A3000AC01A7EAB1E40E94BA056B017C01ACEEFF
:100A4000B4EFA50194010E94C805C60ED71EE81E8A
:100A5000F91EF7FE06C081E0C81AD108E10880E857
:100A6000F80AC882D982EA82FB82C701B6019F7761
:100A7000DF91CF91FF90EF90DF90CF90BF90AF903C
:100A80009F908F9008958F929F92AF92BF92CF9236
:100A9000DF92EF92FF9260910001709101018091CD
:100AA000020190910301611571058105910521F401
:100AB00064E279ED8BE597E02DE133EF41E050E022
:100AC0000E949B0549015A019B01AC01A7EAB1E4D0
:100AD0000E94BA056B017C01ACEEB4EFA501940154
:100AE0000E94C805C60ED71EE81EF91EF7FE06C0F6
:100AF00081E0C81AD108E10880E8F80AC092000134
:100B0000D0920101E0920201F0920301C701B60107
:100B10009F77FF90EF90DF90CF90BF90AF909F9026
:100B20008F900895609300017093010180930201FA
:100B3000909303010895052E97FB1EF400940E94E4
:100B4000B20557FD07D00E94CD0507FC03D04EF437
:100B50000C94B20550954095309521953F4F4F4FDD
:100B60005F4F089590958095709561957F4F8F4F59
:100B70009F4F08950E94EF05A59F900DB49F900D83
:100B8000A49F800D911D11240895B7FF0C94BA0500
:100B90000E94BA05821B930B0895A1E21A2EAA1B8C
:100BA000BB1BFD010DC0AA1FBB1FEE1FFF1FA2171D
:100BB000B307E407F50720F0A21BB30BE40BF50B1A
:100BC000661F771F881F991F1A9469F760957095A3
:100BD000809590959B01AC01BD01CF010895A29F26
:100BE000B001B39FC001A39F700D811D1124911D01
:100BF000B29F700D811D1124911D08950E9412064F
:100C00000C94FA060E94F30658F00E94EC0640F09D
:100C100029F45F3F29F00C94E30651110C942E0740
:100C20000C94E9060E940B0768F39923B1F355234E
:100C300091F3951B550BBB27AA27621773078407EF
:100C400038F09F5F5F4F220F331F441FAA1FA9F385
:100C500035D00E2E3AF0E0E832D091505040E69573
:100C6000001CCAF72BD0FE2F29D0660F771F881FD4
:100C7000BB1F261737074807AB07B0E809F0BB0BC7
:100C8000802DBF01FF2793585F4F3AF09E3F5105DB
:100C900078F00C94E3060C942E075F3FE4F3983E43
:100CA000D4F3869577956795B795F7959F5FC9F7C4
:100CB000880F911D9695879597F90895E1E0660F45
:100CC000771F881FBB1F621773078407BA0720F0BE
:100CD000621B730B840BBA0BEE1F88F7E095089527
:100CE0000E9477066894B1110C942E0708950E9413
:100CF000130788F09F5798F0B92F9927B751B0F094
:100D0000E1F0660F771F881F991F1AF0BA95C9F78F
:100D100014C0B13091F00E942D07B1E008950C94F9
:100D20002D07672F782F8827B85F39F0B93FCCF3AC
:100D3000869577956795B395D9F73EF4909580950C
:100D4000709561957F4F8F4F9F4F0895E89409C02C
:100D500097FB3EF490958095709561957F4F8F4FEE
:100D60009F4F9923A9F0F92F96E9BB279395F69504
:100D7000879577956795B795F111F8CFFAF4BB0F82
:100D800011F460FF1BC06F5F7F4F8F4F9F4F16C0E6
:100D9000882311F096E911C0772321F09EE8872F70
:100DA000762F05C0662371F096E8862F70E060E02C
:100DB0002AF09A95660F771F881FDAF7880F9695A5
:100DC000879597F9089597F99F6780E870E060E04C
:100DD00008959FEF80EC089500240A9416161706D4
:100DE00018060906089500240A941216130614061C
:100DF00005060895092E0394000C11F4882352F07F
:100E0000BB0F40F4BF2B11F460FF04C06F5F7F4F36
:100E10008F4F9F4F089557FD9058440F551F59F01D
:100E20005F3F71F04795880F97FB991F61F09F3FD7
:100E300079F087950895121613061406551FF2CF00
:100E40004695F1DF08C0161617061806991FF1CF50
:100E500086957105610508940895E894BB27662777
:100E60007727CB0197F90895EE0FFF1F0590F491B6
:080E7000E02D0994F894FFCF76
:100E780001000000000000002C018C00B90079017D
:060E8800EA00C800DC00D6
:00000001FF
